{
  "_format": "hh-sol-artifact-1",
  "contractName": "Powers",
  "sourceName": "contracts/Powers.sol",
  "abi": [
    {
      "inputs": [
        {
          "internalType": "uint64",
          "name": "subscriptionId",
          "type": "uint64"
        },
        {
          "internalType": "uint256",
          "name": "mintFee",
          "type": "uint256"
        },
        {
          "internalType": "string[3][4]",
          "name": "powerTokenUris",
          "type": "string[3][4]"
        }
      ],
      "stateMutability": "nonpayable",
      "type": "constructor"
    },
    {
      "inputs": [],
      "name": "AlreadyInitialized",
      "type": "error"
    },
    {
      "inputs": [],
      "name": "NeedMoreETHSent",
      "type": "error"
    },
    {
      "inputs": [
        {
          "internalType": "address",
          "name": "have",
          "type": "address"
        },
        {
          "internalType": "address",
          "name": "want",
          "type": "address"
        }
      ],
      "name": "OnlyCoordinatorCanFulfill",
      "type": "error"
    },
    {
      "inputs": [],
      "name": "RangeOutOfBounds",
      "type": "error"
    },
    {
      "anonymous": false,
      "inputs": [
        {
          "indexed": true,
          "internalType": "address",
          "name": "owner",
          "type": "address"
        },
        {
          "indexed": true,
          "internalType": "address",
          "name": "approved",
          "type": "address"
        },
        {
          "indexed": true,
          "internalType": "uint256",
          "name": "tokenId",
          "type": "uint256"
        }
      ],
      "name": "Approval",
      "type": "event"
    },
    {
      "anonymous": false,
      "inputs": [
        {
          "indexed": true,
          "internalType": "address",
          "name": "owner",
          "type": "address"
        },
        {
          "indexed": true,
          "internalType": "address",
          "name": "operator",
          "type": "address"
        },
        {
          "indexed": false,
          "internalType": "bool",
          "name": "approved",
          "type": "bool"
        }
      ],
      "name": "ApprovalForAll",
      "type": "event"
    },
    {
      "anonymous": false,
      "inputs": [
        {
          "indexed": true,
          "internalType": "address",
          "name": "minter",
          "type": "address"
        }
      ],
      "name": "NftMinted",
      "type": "event"
    },
    {
      "anonymous": false,
      "inputs": [
        {
          "indexed": true,
          "internalType": "uint256",
          "name": "requestId",
          "type": "uint256"
        },
        {
          "indexed": false,
          "internalType": "address",
          "name": "requester",
          "type": "address"
        }
      ],
      "name": "NftRequested",
      "type": "event"
    },
    {
      "anonymous": false,
      "inputs": [
        {
          "indexed": true,
          "internalType": "address",
          "name": "previousOwner",
          "type": "address"
        },
        {
          "indexed": true,
          "internalType": "address",
          "name": "newOwner",
          "type": "address"
        }
      ],
      "name": "OwnershipTransferred",
      "type": "event"
    },
    {
      "anonymous": false,
      "inputs": [
        {
          "indexed": true,
          "internalType": "address",
          "name": "from",
          "type": "address"
        },
        {
          "indexed": true,
          "internalType": "address",
          "name": "to",
          "type": "address"
        },
        {
          "indexed": true,
          "internalType": "uint256",
          "name": "tokenId",
          "type": "uint256"
        }
      ],
      "name": "Transfer",
      "type": "event"
    },
    {
      "inputs": [
        {
          "internalType": "address",
          "name": "to",
          "type": "address"
        },
        {
          "internalType": "uint256",
          "name": "tokenId",
          "type": "uint256"
        }
      ],
      "name": "approve",
      "outputs": [],
      "stateMutability": "nonpayable",
      "type": "function"
    },
    {
      "inputs": [
        {
          "internalType": "address",
          "name": "owner",
          "type": "address"
        }
      ],
      "name": "balanceOf",
      "outputs": [
        {
          "internalType": "uint256",
          "name": "",
          "type": "uint256"
        }
      ],
      "stateMutability": "view",
      "type": "function"
    },
    {
      "inputs": [
        {
          "internalType": "uint256",
          "name": "tokenId",
          "type": "uint256"
        }
      ],
      "name": "getApproved",
      "outputs": [
        {
          "internalType": "address",
          "name": "",
          "type": "address"
        }
      ],
      "stateMutability": "view",
      "type": "function"
    },
    {
      "inputs": [
        {
          "internalType": "uint256",
          "name": "index",
          "type": "uint256"
        }
      ],
      "name": "getBasePowerByTierArray",
      "outputs": [
        {
          "internalType": "uint256",
          "name": "",
          "type": "uint256"
        }
      ],
      "stateMutability": "pure",
      "type": "function"
    },
    {
      "inputs": [],
      "name": "getChanceArray",
      "outputs": [
        {
          "internalType": "uint256[3]",
          "name": "",
          "type": "uint256[3]"
        }
      ],
      "stateMutability": "pure",
      "type": "function"
    },
    {
      "inputs": [
        {
          "internalType": "uint256",
          "name": "moddedRng",
          "type": "uint256"
        }
      ],
      "name": "getElementFromModdedRng",
      "outputs": [
        {
          "internalType": "enum Powers.Element",
          "name": "",
          "type": "uint8"
        }
      ],
      "stateMutability": "pure",
      "type": "function"
    },
    {
      "inputs": [],
      "name": "getInitialized",
      "outputs": [
        {
          "internalType": "bool",
          "name": "",
          "type": "bool"
        }
      ],
      "stateMutability": "view",
      "type": "function"
    },
    {
      "inputs": [],
      "name": "getMintFee",
      "outputs": [
        {
          "internalType": "uint256",
          "name": "",
          "type": "uint256"
        }
      ],
      "stateMutability": "view",
      "type": "function"
    },
    {
      "inputs": [
        {
          "internalType": "uint256",
          "name": "elementIndex",
          "type": "uint256"
        },
        {
          "internalType": "uint256",
          "name": "tierIndex",
          "type": "uint256"
        }
      ],
      "name": "getPowerTokenUris",
      "outputs": [
        {
          "internalType": "string",
          "name": "",
          "type": "string"
        }
      ],
      "stateMutability": "view",
      "type": "function"
    },
    {
      "inputs": [
        {
          "internalType": "uint256",
          "name": "moddedRng",
          "type": "uint256"
        }
      ],
      "name": "getTierFromModdedRng",
      "outputs": [
        {
          "internalType": "enum Powers.Tier",
          "name": "",
          "type": "uint8"
        }
      ],
      "stateMutability": "pure",
      "type": "function"
    },
    {
      "inputs": [],
      "name": "getTokenCounter",
      "outputs": [
        {
          "internalType": "uint256",
          "name": "",
          "type": "uint256"
        }
      ],
      "stateMutability": "view",
      "type": "function"
    },
    {
      "inputs": [
        {
          "internalType": "address",
          "name": "owner",
          "type": "address"
        },
        {
          "internalType": "address",
          "name": "operator",
          "type": "address"
        }
      ],
      "name": "isApprovedForAll",
      "outputs": [
        {
          "internalType": "bool",
          "name": "",
          "type": "bool"
        }
      ],
      "stateMutability": "view",
      "type": "function"
    },
    {
      "inputs": [],
      "name": "name",
      "outputs": [
        {
          "internalType": "string",
          "name": "",
          "type": "string"
        }
      ],
      "stateMutability": "view",
      "type": "function"
    },
    {
      "inputs": [],
      "name": "owner",
      "outputs": [
        {
          "internalType": "address",
          "name": "",
          "type": "address"
        }
      ],
      "stateMutability": "view",
      "type": "function"
    },
    {
      "inputs": [
        {
          "internalType": "uint256",
          "name": "tokenId",
          "type": "uint256"
        }
      ],
      "name": "ownerOf",
      "outputs": [
        {
          "internalType": "address",
          "name": "",
          "type": "address"
        }
      ],
      "stateMutability": "view",
      "type": "function"
    },
    {
      "inputs": [
        {
          "internalType": "uint256",
          "name": "requestId",
          "type": "uint256"
        },
        {
          "internalType": "uint256[]",
          "name": "randomWords",
          "type": "uint256[]"
        }
      ],
      "name": "rawFulfillRandomWords",
      "outputs": [],
      "stateMutability": "nonpayable",
      "type": "function"
    },
    {
      "inputs": [],
      "name": "renounceOwnership",
      "outputs": [],
      "stateMutability": "nonpayable",
      "type": "function"
    },
    {
      "inputs": [],
      "name": "requestNft",
      "outputs": [
        {
          "internalType": "uint256",
          "name": "requestId",
          "type": "uint256"
        }
      ],
      "stateMutability": "payable",
      "type": "function"
    },
    {
      "inputs": [
        {
          "internalType": "uint256",
          "name": "",
          "type": "uint256"
        }
      ],
      "name": "s_requestIdToSender",
      "outputs": [
        {
          "internalType": "address",
          "name": "",
          "type": "address"
        }
      ],
      "stateMutability": "view",
      "type": "function"
    },
    {
      "inputs": [],
      "name": "s_tokenCounter",
      "outputs": [
        {
          "internalType": "uint256",
          "name": "",
          "type": "uint256"
        }
      ],
      "stateMutability": "view",
      "type": "function"
    },
    {
      "inputs": [
        {
          "internalType": "address",
          "name": "from",
          "type": "address"
        },
        {
          "internalType": "address",
          "name": "to",
          "type": "address"
        },
        {
          "internalType": "uint256",
          "name": "tokenId",
          "type": "uint256"
        }
      ],
      "name": "safeTransferFrom",
      "outputs": [],
      "stateMutability": "nonpayable",
      "type": "function"
    },
    {
      "inputs": [
        {
          "internalType": "address",
          "name": "from",
          "type": "address"
        },
        {
          "internalType": "address",
          "name": "to",
          "type": "address"
        },
        {
          "internalType": "uint256",
          "name": "tokenId",
          "type": "uint256"
        },
        {
          "internalType": "bytes",
          "name": "_data",
          "type": "bytes"
        }
      ],
      "name": "safeTransferFrom",
      "outputs": [],
      "stateMutability": "nonpayable",
      "type": "function"
    },
    {
      "inputs": [
        {
          "internalType": "address",
          "name": "operator",
          "type": "address"
        },
        {
          "internalType": "bool",
          "name": "approved",
          "type": "bool"
        }
      ],
      "name": "setApprovalForAll",
      "outputs": [],
      "stateMutability": "nonpayable",
      "type": "function"
    },
    {
      "inputs": [
        {
          "internalType": "bytes4",
          "name": "interfaceId",
          "type": "bytes4"
        }
      ],
      "name": "supportsInterface",
      "outputs": [
        {
          "internalType": "bool",
          "name": "",
          "type": "bool"
        }
      ],
      "stateMutability": "view",
      "type": "function"
    },
    {
      "inputs": [],
      "name": "symbol",
      "outputs": [
        {
          "internalType": "string",
          "name": "",
          "type": "string"
        }
      ],
      "stateMutability": "view",
      "type": "function"
    },
    {
      "inputs": [
        {
          "internalType": "uint256",
          "name": "",
          "type": "uint256"
        }
      ],
      "name": "tokenIdToPowerAmount",
      "outputs": [
        {
          "internalType": "uint256",
          "name": "",
          "type": "uint256"
        }
      ],
      "stateMutability": "view",
      "type": "function"
    },
    {
      "inputs": [
        {
          "internalType": "uint256",
          "name": "tokenId",
          "type": "uint256"
        }
      ],
      "name": "tokenURI",
      "outputs": [
        {
          "internalType": "string",
          "name": "",
          "type": "string"
        }
      ],
      "stateMutability": "view",
      "type": "function"
    },
    {
      "inputs": [
        {
          "internalType": "address",
          "name": "from",
          "type": "address"
        },
        {
          "internalType": "address",
          "name": "to",
          "type": "address"
        },
        {
          "internalType": "uint256",
          "name": "tokenId",
          "type": "uint256"
        }
      ],
      "name": "transferFrom",
      "outputs": [],
      "stateMutability": "nonpayable",
      "type": "function"
    },
    {
      "inputs": [
        {
          "internalType": "address",
          "name": "newOwner",
          "type": "address"
        }
      ],
      "name": "transferOwnership",
      "outputs": [],
      "stateMutability": "nonpayable",
      "type": "function"
    },
    {
      "inputs": [],
      "name": "withdraw",
      "outputs": [],
      "stateMutability": "nonpayable",
      "type": "function"
    }
  ],
  "bytecode": "0x610140604052737a1bac17ccc5b313516c5e16fb24f7659aa5ebed73ffffffffffffffffffffffffffffffffffffffff1660a09073ffffffffffffffffffffffffffffffffffffffff1660601b8152507f4b09e658ed251bcafeebbc69400383d49f344ace09b9576fe248bb02c003fe9f60001b61010090815250621e848063ffffffff166101209063ffffffff1660e01b815250348015620000a157600080fd5b5060405162004c5f38038062004c5f8339818101604052810190620000c79190620009a6565b60a05160601c6040518060400160405280600581526020017f506f7765720000000000000000000000000000000000000000000000000000008152506040518060400160405280600381526020017f505752000000000000000000000000000000000000000000000000000000000081525081600090805190602001906200015192919062000389565b5080600190805190602001906200016a92919062000389565b5050508073ffffffffffffffffffffffffffffffffffffffff1660808173ffffffffffffffffffffffffffffffffffffffff1660601b8152505050620001c5620001b96200024160201b60201c565b6200024960201b60201c565b60a05160601c73ffffffffffffffffffffffffffffffffffffffff1660c08173ffffffffffffffffffffffffffffffffffffffff1660601b815250508267ffffffffffffffff1660e08167ffffffffffffffff1660c01b815250508160088190555062000238816200030f60201b60201c565b50505062000a86565b600033905090565b6000600760009054906101000a900473ffffffffffffffffffffffffffffffffffffffff16905081600760006101000a81548173ffffffffffffffffffffffffffffffffffffffff021916908373ffffffffffffffffffffffffffffffffffffffff1602179055508173ffffffffffffffffffffffffffffffffffffffff168173ffffffffffffffffffffffffffffffffffffffff167f8be0079c531659141344cd1fd0a4f28419497f9722a3daafe3b4186f6b6457e060405160405180910390a35050565b601760009054906101000a900460ff161562000357576040517f0dc149f000000000000000000000000000000000000000000000000000000000815260040160405180910390fd5b80600b9060046200036a9291906200041a565b506001601760006101000a81548160ff02191690831515021790555050565b828054620003979062000a50565b90600052602060002090601f016020900481019282620003bb576000855562000407565b82601f10620003d657805160ff191683800117855562000407565b8280016001018555821562000407579182015b8281111562000406578251825591602001919060010190620003e9565b5b50905062000416919062000472565b5090565b82600460030281019282156200045f579160200282015b828111156200045e578251829060036200044d92919062000491565b509160200191906003019062000431565b5b5090506200046e9190620004eb565b5090565b5b808211156200048d57600081600090555060010162000473565b5090565b8260038101928215620004d8579160200282015b82811115620004d7578251829080519060200190620004c692919062000389565b5091602001919060010190620004a5565b5b509050620004e7919062000513565b5090565b5b808211156200050f57600081816200050591906200053b565b50600301620004ec565b5090565b5b808211156200053757600081816200052d919062000574565b5060010162000514565b5090565b50600081816200054c919062000574565b506001016000818162000560919062000574565b50600101600062000572919062000574565b565b508054620005829062000a50565b6000825580601f10620005965750620005b7565b601f016020900490600052602060002090810190620005b6919062000472565b5b50565b6000604051905090565b600080fd5b600080fd5b600067ffffffffffffffff82169050919050565b620005ed81620005ce565b8114620005f957600080fd5b50565b6000815190506200060d81620005e2565b92915050565b6000819050919050565b620006288162000613565b81146200063457600080fd5b50565b60008151905062000648816200061d565b92915050565b600080fd5b6000601f19601f8301169050919050565b7f4e487b7100000000000000000000000000000000000000000000000000000000600052604160045260246000fd5b6200069e8262000653565b810181811067ffffffffffffffff82111715620006c057620006bf62000664565b5b80604052505050565b6000620006d5620005ba565b9050620006e3828262000693565b919050565b600067ffffffffffffffff82111562000706576200070562000664565b5b602082029050919050565b600080fd5b600067ffffffffffffffff82111562000734576200073362000664565b5b602082029050919050565b600080fd5b600067ffffffffffffffff82111562000762576200076162000664565b5b6200076d8262000653565b9050602081019050919050565b60005b838110156200079a5780820151818401526020810190506200077d565b83811115620007aa576000848401525b50505050565b6000620007c7620007c18462000744565b620006c9565b905082815260208101848484011115620007e657620007e56200073f565b5b620007f38482856200077a565b509392505050565b600082601f8301126200081357620008126200064e565b5b815162000825848260208601620007b0565b91505092915050565b6000620008456200083f8462000716565b620006c9565b9050806020840283018581111562000862576200086162000711565b5b835b81811015620008b057805167ffffffffffffffff8111156200088b576200088a6200064e565b5b8086016200089a8982620007fb565b8552602085019450505060208101905062000864565b5050509392505050565b600082601f830112620008d257620008d16200064e565b5b6003620008e18482856200082e565b91505092915050565b600062000901620008fb84620006e8565b620006c9565b905080602084028301858111156200091e576200091d62000711565b5b835b818110156200096c57805167ffffffffffffffff8111156200094757620009466200064e565b5b808601620009568982620008ba565b8552602085019450505060208101905062000920565b5050509392505050565b600082601f8301126200098e576200098d6200064e565b5b60046200099d848285620008ea565b91505092915050565b600080600060608486031215620009c257620009c1620005c4565b5b6000620009d286828701620005fc565b9350506020620009e58682870162000637565b925050604084015167ffffffffffffffff81111562000a095762000a08620005c9565b5b62000a178682870162000976565b9150509250925092565b7f4e487b7100000000000000000000000000000000000000000000000000000000600052602260045260246000fd5b6000600282049050600182168062000a6957607f821691505b6020821081141562000a805762000a7f62000a21565b5b50919050565b60805160601c60a05160601c60c05160601c60e05160c01c610100516101205160e01c61417662000ae960003960006113a701526000611363015260006113840152600061132701526000505060008181610ad90152610b2d01526141766000f3fe6080604052600436106101cd5760003560e01c80636e02007d116100f7578063a36f573b11610095578063c87b56dd11610064578063c87b56dd146106a3578063e985e9c5146106e0578063ee89dab41461071d578063f2fde38b14610748576101cd565b8063a36f573b146105e2578063a8bacf001461061f578063aa1524911461065c578063b88d4fde1461067a576101cd565b80637a5caab3116100d15780637a5caab3146105385780638da5cb5b1461056357806395d89b411461058e578063a22cb465146105b9576101cd565b80636e02007d146104b957806370a08231146104e4578063715018a614610521576101cd565b806323b872dd1161016f5780634c8376ab1161013e5780634c8376ab146103d75780635dacf5f4146104145780636352211e1461043f57806365996ec51461047c576101cd565b806323b872dd146103315780633a94081b1461035a5780633ccfd60b1461039757806342842e0e146103ae576101cd565b8063095ea7b3116101ab578063095ea7b3146102775780630b21a83b146102a05780631a38ccc0146102cb5780631fe543e314610308576101cd565b806301ffc9a7146101d257806306fdde031461020f578063081812fc1461023a575b600080fd5b3480156101de57600080fd5b506101f960048036038101906101f491906129d0565b610771565b6040516102069190612a18565b60405180910390f35b34801561021b57600080fd5b50610224610853565b6040516102319190612acc565b60405180910390f35b34801561024657600080fd5b50610261600480360381019061025c9190612b24565b6108e5565b60405161026e9190612b92565b60405180910390f35b34801561028357600080fd5b5061029e60048036038101906102999190612bd9565b61096a565b005b3480156102ac57600080fd5b506102b5610a82565b6040516102c29190612c28565b60405180910390f35b3480156102d757600080fd5b506102f260048036038101906102ed9190612b24565b610a88565b6040516102ff9190612c28565b60405180910390f35b34801561031457600080fd5b5061032f600480360381019061032a9190612d8b565b610ad7565b005b34801561033d57600080fd5b5061035860048036038101906103539190612de7565b610b97565b005b34801561036657600080fd5b50610381600480360381019061037c9190612e3a565b610bf7565b60405161038e9190612acc565b60405180910390f35b3480156103a357600080fd5b506103ac610cb5565b005b3480156103ba57600080fd5b506103d560048036038101906103d09190612de7565b610de6565b005b3480156103e357600080fd5b506103fe60048036038101906103f99190612b24565b610e06565b60405161040b9190612ef1565b60405180910390f35b34801561042057600080fd5b50610429610eb5565b6040516104369190612fb7565b60405180910390f35b34801561044b57600080fd5b5061046660048036038101906104619190612b24565b610ee2565b6040516104739190612b92565b60405180910390f35b34801561048857600080fd5b506104a3600480360381019061049e9190612b24565b610f94565b6040516104b0919061301a565b60405180910390f35b3480156104c557600080fd5b506104ce611076565b6040516104db9190612c28565b60405180910390f35b3480156104f057600080fd5b5061050b60048036038101906105069190613035565b611080565b6040516105189190612c28565b60405180910390f35b34801561052d57600080fd5b50610536611138565b005b34801561054457600080fd5b5061054d6111c0565b60405161055a9190612c28565b60405180910390f35b34801561056f57600080fd5b506105786111ca565b6040516105859190612b92565b60405180910390f35b34801561059a57600080fd5b506105a36111f4565b6040516105b09190612acc565b60405180910390f35b3480156105c557600080fd5b506105e060048036038101906105db919061308e565b611286565b005b3480156105ee57600080fd5b5061060960048036038101906106049190612b24565b61129c565b6040516106169190612b92565b60405180910390f35b34801561062b57600080fd5b5061064660048036038101906106419190612b24565b6112cf565b6040516106539190612c28565b60405180910390f35b6106646112e7565b6040516106719190612c28565b60405180910390f35b34801561068657600080fd5b506106a1600480360381019061069c9190613183565b6114c9565b005b3480156106af57600080fd5b506106ca60048036038101906106c59190612b24565b61152b565b6040516106d79190612acc565b60405180910390f35b3480156106ec57600080fd5b5061070760048036038101906107029190613206565b61167d565b6040516107149190612a18565b60405180910390f35b34801561072957600080fd5b50610732611711565b60405161073f9190612a18565b60405180910390f35b34801561075457600080fd5b5061076f600480360381019061076a9190613035565b611728565b005b60007f80ac58cd000000000000000000000000000000000000000000000000000000007bffffffffffffffffffffffffffffffffffffffffffffffffffffffff1916827bffffffffffffffffffffffffffffffffffffffffffffffffffffffff1916148061083c57507f5b5e139f000000000000000000000000000000000000000000000000000000007bffffffffffffffffffffffffffffffffffffffffffffffffffffffff1916827bffffffffffffffffffffffffffffffffffffffffffffffffffffffff1916145b8061084c575061084b82611820565b5b9050919050565b60606000805461086290613275565b80601f016020809104026020016040519081016040528092919081815260200182805461088e90613275565b80156108db5780601f106108b0576101008083540402835291602001916108db565b820191906000526020600020905b8154815290600101906020018083116108be57829003601f168201915b5050505050905090565b60006108f08261188a565b61092f576040517f08c379a000000000000000000000000000000000000000000000000000000000815260040161092690613319565b60405180910390fd5b6004600083815260200190815260200160002060009054906101000a900473ffffffffffffffffffffffffffffffffffffffff169050919050565b600061097582610ee2565b90508073ffffffffffffffffffffffffffffffffffffffff168373ffffffffffffffffffffffffffffffffffffffff1614156109e6576040517f08c379a00000000000000000000000000000000000000000000000000000000081526004016109dd906133ab565b60405180910390fd5b8073ffffffffffffffffffffffffffffffffffffffff16610a056118f6565b73ffffffffffffffffffffffffffffffffffffffff161480610a345750610a3381610a2e6118f6565b61167d565b5b610a73576040517f08c379a0000000000000000000000000000000000000000000000000000000008152600401610a6a9061343d565b60405180910390fd5b610a7d83836118fe565b505050565b60095481565b6000806040518060600160405280605a60ff168152602001604160ff168152602001602d60ff168152509050808360038110610ac757610ac661345d565b5b602002015160ff16915050919050565b7f000000000000000000000000000000000000000000000000000000000000000073ffffffffffffffffffffffffffffffffffffffff163373ffffffffffffffffffffffffffffffffffffffff1614610b8957337f00000000000000000000000000000000000000000000000000000000000000006040517f1cf993f4000000000000000000000000000000000000000000000000000000008152600401610b8092919061348c565b60405180910390fd5b610b9382826119b7565b5050565b610ba8610ba26118f6565b82611c21565b610be7576040517f08c379a0000000000000000000000000000000000000000000000000000000008152600401610bde90613527565b60405180910390fd5b610bf2838383611cff565b505050565b6060600b8360048110610c0d57610c0c61345d565b5b600302018260038110610c2357610c2261345d565b5b018054610c2f90613275565b80601f0160208091040260200160405190810160405280929190818152602001828054610c5b90613275565b8015610ca85780601f10610c7d57610100808354040283529160200191610ca8565b820191906000526020600020905b815481529060010190602001808311610c8b57829003601f168201915b5050505050905092915050565b610cbd6118f6565b73ffffffffffffffffffffffffffffffffffffffff16610cdb6111ca565b73ffffffffffffffffffffffffffffffffffffffff1614610d31576040517f08c379a0000000000000000000000000000000000000000000000000000000008152600401610d2890613593565b60405180910390fd5b600047905060003373ffffffffffffffffffffffffffffffffffffffff1682604051610d5c906135e4565b60006040518083038185875af1925050503d8060008114610d99576040519150601f19603f3d011682016040523d82523d6000602084013e610d9e565b606091505b5050905080610de2576040517f08c379a0000000000000000000000000000000000000000000000000000000008152600401610dd990613645565b60405180910390fd5b5050565b610e01838383604051806020016040528060008152506114c9565b505050565b6000806000905060006004905060005b81811015610e7d57828510158015610e39575060fa83610e369190613694565b85105b15610e5b57806003811115610e5157610e50612e7a565b5b9350505050610eb0565b60fa83610e689190613694565b92508080610e75906136ea565b915050610e16565b506040517f0655dc2500000000000000000000000000000000000000000000000000000000815260040160405180910390fd5b919050565b610ebd61289f565b60405180606001604052806064815260200161012c81526020016103e8815250905090565b6000806002600084815260200190815260200160002060009054906101000a900473ffffffffffffffffffffffffffffffffffffffff169050600073ffffffffffffffffffffffffffffffffffffffff168173ffffffffffffffffffffffffffffffffffffffff161415610f8b576040517f08c379a0000000000000000000000000000000000000000000000000000000008152600401610f82906137a5565b60405180910390fd5b80915050919050565b600080600090506000610fa5610eb5565b905060005b600381101561103e57828510158015610fe45750818160038110610fd157610fd061345d565b5b602002015183610fe19190613694565b85105b1561100657806002811115610ffc57610ffb612e7a565b5b9350505050611071565b8181600381106110195761101861345d565b5b6020020151836110299190613694565b92508080611036906136ea565b915050610faa565b506040517f0655dc2500000000000000000000000000000000000000000000000000000000815260040160405180910390fd5b919050565b6000600954905090565b60008073ffffffffffffffffffffffffffffffffffffffff168273ffffffffffffffffffffffffffffffffffffffff1614156110f1576040517f08c379a00000000000000000000000000000000000000000000000000000000081526004016110e890613837565b60405180910390fd5b600360008373ffffffffffffffffffffffffffffffffffffffff1673ffffffffffffffffffffffffffffffffffffffff168152602001908152602001600020549050919050565b6111406118f6565b73ffffffffffffffffffffffffffffffffffffffff1661115e6111ca565b73ffffffffffffffffffffffffffffffffffffffff16146111b4576040517f08c379a00000000000000000000000000000000000000000000000000000000081526004016111ab90613593565b60405180910390fd5b6111be6000611f66565b565b6000600854905090565b6000600760009054906101000a900473ffffffffffffffffffffffffffffffffffffffff16905090565b60606001805461120390613275565b80601f016020809104026020016040519081016040528092919081815260200182805461122f90613275565b801561127c5780601f106112515761010080835404028352916020019161127c565b820191906000526020600020905b81548152906001019060200180831161125f57829003601f168201915b5050505050905090565b6112986112916118f6565b838361202c565b5050565b60186020528060005260406000206000915054906101000a900473ffffffffffffffffffffffffffffffffffffffff1681565b600a6020528060005260406000206000915090505481565b6000600854341015611325576040517f2e53d2d300000000000000000000000000000000000000000000000000000000815260040160405180910390fd5b7f000000000000000000000000000000000000000000000000000000000000000073ffffffffffffffffffffffffffffffffffffffff16635d3b1d307f00000000000000000000000000000000000000000000000000000000000000007f000000000000000000000000000000000000000000000000000000000000000060037f000000000000000000000000000000000000000000000000000000000000000060026040518663ffffffff1660e01b81526004016113e89594939291906138cf565b602060405180830381600087803b15801561140257600080fd5b505af1158015611416573d6000803e3d6000fd5b505050506040513d601f19601f8201168201806040525081019061143a9190613937565b9050336018600083815260200190815260200160002060006101000a81548173ffffffffffffffffffffffffffffffffffffffff021916908373ffffffffffffffffffffffffffffffffffffffff160217905550807ff873236e6cc0ecc5be1a9a35c95ee5b8d1ac4cc7bfef0cc5060391d6cc98e26b336040516114be9190612b92565b60405180910390a290565b6114da6114d46118f6565b83611c21565b611519576040517f08c379a000000000000000000000000000000000000000000000000000000000815260040161151090613527565b60405180910390fd5b61152584848484612199565b50505050565b60606115368261188a565b611575576040517f08c379a000000000000000000000000000000000000000000000000000000000815260040161156c906139d6565b60405180910390fd5b600060066000848152602001908152602001600020805461159590613275565b80601f01602080910402602001604051908101604052809291908181526020018280546115c190613275565b801561160e5780601f106115e35761010080835404028352916020019161160e565b820191906000526020600020905b8154815290600101906020018083116115f157829003601f168201915b50505050509050600061161f6121f5565b9050600081511415611635578192505050611678565b60008251111561166a578082604051602001611652929190613a32565b60405160208183030381529060405292505050611678565b6116738461220c565b925050505b919050565b6000600560008473ffffffffffffffffffffffffffffffffffffffff1673ffffffffffffffffffffffffffffffffffffffff16815260200190815260200160002060008373ffffffffffffffffffffffffffffffffffffffff1673ffffffffffffffffffffffffffffffffffffffff16815260200190815260200160002060009054906101000a900460ff16905092915050565b6000601760009054906101000a900460ff16905090565b6117306118f6565b73ffffffffffffffffffffffffffffffffffffffff1661174e6111ca565b73ffffffffffffffffffffffffffffffffffffffff16146117a4576040517f08c379a000000000000000000000000000000000000000000000000000000000815260040161179b90613593565b60405180910390fd5b600073ffffffffffffffffffffffffffffffffffffffff168173ffffffffffffffffffffffffffffffffffffffff161415611814576040517f08c379a000000000000000000000000000000000000000000000000000000000815260040161180b90613ac8565b60405180910390fd5b61181d81611f66565b50565b60007f01ffc9a7000000000000000000000000000000000000000000000000000000007bffffffffffffffffffffffffffffffffffffffffffffffffffffffff1916827bffffffffffffffffffffffffffffffffffffffffffffffffffffffff1916149050919050565b60008073ffffffffffffffffffffffffffffffffffffffff166002600084815260200190815260200160002060009054906101000a900473ffffffffffffffffffffffffffffffffffffffff1673ffffffffffffffffffffffffffffffffffffffff1614159050919050565b600033905090565b816004600083815260200190815260200160002060006101000a81548173ffffffffffffffffffffffffffffffffffffffff021916908373ffffffffffffffffffffffffffffffffffffffff160217905550808273ffffffffffffffffffffffffffffffffffffffff1661197183610ee2565b73ffffffffffffffffffffffffffffffffffffffff167f8c5be1e5ebec7d5bd14f71427d1e84f3dd0314c0f7b2291e5b200ac8c7c3b92560405160405180910390a45050565b60006018600084815260200190815260200160002060009054906101000a900473ffffffffffffffffffffffffffffffffffffffff169050600060095490506001600954611a059190613694565b60098190555060006103e884600081518110611a2457611a2361345d565b5b6020026020010151611a369190613b17565b905060006103e885600181518110611a5157611a5061345d565b5b6020026020010151611a639190613b17565b90506000600a86600181518110611a7d57611a7c61345d565b5b6020026020010151611a8f9190613b17565b90506000611a9c84610e06565b90506000611aa984610f94565b905082611ac7826002811115611ac257611ac1612e7a565b5b610a88565b611ad19190613694565b600a600088815260200190815260200160002081905550611af287876122b3565b611bd386600b846003811115611b0b57611b0a612e7a565b5b60048110611b1c57611b1b61345d565b5b60030201836002811115611b3357611b32612e7a565b5b60038110611b4457611b4361345d565b5b018054611b5090613275565b80601f0160208091040260200160405190810160405280929190818152602001828054611b7c90613275565b8015611bc95780601f10611b9e57610100808354040283529160200191611bc9565b820191906000526020600020905b815481529060010190602001808311611bac57829003601f168201915b50505050506122d1565b8673ffffffffffffffffffffffffffffffffffffffff167f3dab64d173b82cdea212bccb7c499f8f5a25d0cc1a55c9b50875f41b9f14084360405160405180910390a2505050505050505050565b6000611c2c8261188a565b611c6b576040517f08c379a0000000000000000000000000000000000000000000000000000000008152600401611c6290613bba565b60405180910390fd5b6000611c7683610ee2565b90508073ffffffffffffffffffffffffffffffffffffffff168473ffffffffffffffffffffffffffffffffffffffff161480611ce557508373ffffffffffffffffffffffffffffffffffffffff16611ccd846108e5565b73ffffffffffffffffffffffffffffffffffffffff16145b80611cf65750611cf5818561167d565b5b91505092915050565b8273ffffffffffffffffffffffffffffffffffffffff16611d1f82610ee2565b73ffffffffffffffffffffffffffffffffffffffff1614611d75576040517f08c379a0000000000000000000000000000000000000000000000000000000008152600401611d6c90613c4c565b60405180910390fd5b600073ffffffffffffffffffffffffffffffffffffffff168273ffffffffffffffffffffffffffffffffffffffff161415611de5576040517f08c379a0000000000000000000000000000000000000000000000000000000008152600401611ddc90613cde565b60405180910390fd5b611df0838383612345565b611dfb6000826118fe565b6001600360008573ffffffffffffffffffffffffffffffffffffffff1673ffffffffffffffffffffffffffffffffffffffff1681526020019081526020016000206000828254611e4b9190613cfe565b925050819055506001600360008473ffffffffffffffffffffffffffffffffffffffff1673ffffffffffffffffffffffffffffffffffffffff1681526020019081526020016000206000828254611ea29190613694565b92505081905550816002600083815260200190815260200160002060006101000a81548173ffffffffffffffffffffffffffffffffffffffff021916908373ffffffffffffffffffffffffffffffffffffffff160217905550808273ffffffffffffffffffffffffffffffffffffffff168473ffffffffffffffffffffffffffffffffffffffff167fddf252ad1be2c89b69c2b068fc378daa952ba7f163c4a11628f55a4df523b3ef60405160405180910390a4611f6183838361234a565b505050565b6000600760009054906101000a900473ffffffffffffffffffffffffffffffffffffffff16905081600760006101000a81548173ffffffffffffffffffffffffffffffffffffffff021916908373ffffffffffffffffffffffffffffffffffffffff1602179055508173ffffffffffffffffffffffffffffffffffffffff168173ffffffffffffffffffffffffffffffffffffffff167f8be0079c531659141344cd1fd0a4f28419497f9722a3daafe3b4186f6b6457e060405160405180910390a35050565b8173ffffffffffffffffffffffffffffffffffffffff168373ffffffffffffffffffffffffffffffffffffffff16141561209b576040517f08c379a000000000000000000000000000000000000000000000000000000000815260040161209290613d7e565b60405180910390fd5b80600560008573ffffffffffffffffffffffffffffffffffffffff1673ffffffffffffffffffffffffffffffffffffffff16815260200190815260200160002060008473ffffffffffffffffffffffffffffffffffffffff1673ffffffffffffffffffffffffffffffffffffffff16815260200190815260200160002060006101000a81548160ff0219169083151502179055508173ffffffffffffffffffffffffffffffffffffffff168373ffffffffffffffffffffffffffffffffffffffff167f17307eab39ab6107e8899845ad3d59bd9653f200f220920489ca2b5937696c318360405161218c9190612a18565b60405180910390a3505050565b6121a4848484611cff565b6121b08484848461234f565b6121ef576040517f08c379a00000000000000000000000000000000000000000000000000000000081526004016121e690613e10565b60405180910390fd5b50505050565b606060405180602001604052806000815250905090565b60606122178261188a565b612256576040517f08c379a000000000000000000000000000000000000000000000000000000000815260040161224d90613ea2565b60405180910390fd5b60006122606121f5565b9050600081511161228057604051806020016040528060008152506122ab565b8061228a846124e6565b60405160200161229b929190613a32565b6040516020818303038152906040525b915050919050565b6122cd828260405180602001604052806000815250612647565b5050565b6122da8261188a565b612319576040517f08c379a000000000000000000000000000000000000000000000000000000000815260040161231090613f34565b60405180910390fd5b806006600084815260200190815260200160002090805190602001906123409291906128c1565b505050565b505050565b505050565b60006123708473ffffffffffffffffffffffffffffffffffffffff166126a2565b156124d9578373ffffffffffffffffffffffffffffffffffffffff1663150b7a026123996118f6565b8786866040518563ffffffff1660e01b81526004016123bb9493929190613fa9565b602060405180830381600087803b1580156123d557600080fd5b505af192505050801561240657506040513d601f19601f82011682018060405250810190612403919061400a565b60015b612489573d8060008114612436576040519150601f19603f3d011682016040523d82523d6000602084013e61243b565b606091505b50600081511415612481576040517f08c379a000000000000000000000000000000000000000000000000000000000815260040161247890613e10565b60405180910390fd5b805181602001fd5b63150b7a0260e01b7bffffffffffffffffffffffffffffffffffffffffffffffffffffffff1916817bffffffffffffffffffffffffffffffffffffffffffffffffffffffff1916149150506124de565b600190505b949350505050565b6060600082141561252e576040518060400160405280600181526020017f30000000000000000000000000000000000000000000000000000000000000008152509050612642565b600082905060005b60008214612560578080612549906136ea565b915050600a826125599190614037565b9150612536565b60008167ffffffffffffffff81111561257c5761257b612c48565b5b6040519080825280601f01601f1916602001820160405280156125ae5781602001600182028036833780820191505090505b5090505b6000851461263b576001826125c79190613cfe565b9150600a856125d69190613b17565b60306125e29190613694565b60f81b8183815181106125f8576125f761345d565b5b60200101907effffffffffffffffffffffffffffffffffffffffffffffffffffffffffffff1916908160001a905350600a856126349190614037565b94506125b2565b8093505050505b919050565b61265183836126c5565b61265e600084848461234f565b61269d576040517f08c379a000000000000000000000000000000000000000000000000000000000815260040161269490613e10565b60405180910390fd5b505050565b6000808273ffffffffffffffffffffffffffffffffffffffff163b119050919050565b600073ffffffffffffffffffffffffffffffffffffffff168273ffffffffffffffffffffffffffffffffffffffff161415612735576040517f08c379a000000000000000000000000000000000000000000000000000000000815260040161272c906140b4565b60405180910390fd5b61273e8161188a565b1561277e576040517f08c379a000000000000000000000000000000000000000000000000000000000815260040161277590614120565b60405180910390fd5b61278a60008383612345565b6001600360008473ffffffffffffffffffffffffffffffffffffffff1673ffffffffffffffffffffffffffffffffffffffff16815260200190815260200160002060008282546127da9190613694565b92505081905550816002600083815260200190815260200160002060006101000a81548173ffffffffffffffffffffffffffffffffffffffff021916908373ffffffffffffffffffffffffffffffffffffffff160217905550808273ffffffffffffffffffffffffffffffffffffffff16600073ffffffffffffffffffffffffffffffffffffffff167fddf252ad1be2c89b69c2b068fc378daa952ba7f163c4a11628f55a4df523b3ef60405160405180910390a461289b6000838361234a565b5050565b6040518060600160405280600390602082028036833780820191505090505090565b8280546128cd90613275565b90600052602060002090601f0160209004810192826128ef5760008555612936565b82601f1061290857805160ff1916838001178555612936565b82800160010185558215612936579182015b8281111561293557825182559160200191906001019061291a565b5b5090506129439190612947565b5090565b5b80821115612960576000816000905550600101612948565b5090565b6000604051905090565b600080fd5b600080fd5b60007fffffffff0000000000000000000000000000000000000000000000000000000082169050919050565b6129ad81612978565b81146129b857600080fd5b50565b6000813590506129ca816129a4565b92915050565b6000602082840312156129e6576129e561296e565b5b60006129f4848285016129bb565b91505092915050565b60008115159050919050565b612a12816129fd565b82525050565b6000602082019050612a2d6000830184612a09565b92915050565b600081519050919050565b600082825260208201905092915050565b60005b83811015612a6d578082015181840152602081019050612a52565b83811115612a7c576000848401525b50505050565b6000601f19601f8301169050919050565b6000612a9e82612a33565b612aa88185612a3e565b9350612ab8818560208601612a4f565b612ac181612a82565b840191505092915050565b60006020820190508181036000830152612ae68184612a93565b905092915050565b6000819050919050565b612b0181612aee565b8114612b0c57600080fd5b50565b600081359050612b1e81612af8565b92915050565b600060208284031215612b3a57612b3961296e565b5b6000612b4884828501612b0f565b91505092915050565b600073ffffffffffffffffffffffffffffffffffffffff82169050919050565b6000612b7c82612b51565b9050919050565b612b8c81612b71565b82525050565b6000602082019050612ba76000830184612b83565b92915050565b612bb681612b71565b8114612bc157600080fd5b50565b600081359050612bd381612bad565b92915050565b60008060408385031215612bf057612bef61296e565b5b6000612bfe85828601612bc4565b9250506020612c0f85828601612b0f565b9150509250929050565b612c2281612aee565b82525050565b6000602082019050612c3d6000830184612c19565b92915050565b600080fd5b7f4e487b7100000000000000000000000000000000000000000000000000000000600052604160045260246000fd5b612c8082612a82565b810181811067ffffffffffffffff82111715612c9f57612c9e612c48565b5b80604052505050565b6000612cb2612964565b9050612cbe8282612c77565b919050565b600067ffffffffffffffff821115612cde57612cdd612c48565b5b602082029050602081019050919050565b600080fd5b6000612d07612d0284612cc3565b612ca8565b90508083825260208201905060208402830185811115612d2a57612d29612cef565b5b835b81811015612d535780612d3f8882612b0f565b845260208401935050602081019050612d2c565b5050509392505050565b600082601f830112612d7257612d71612c43565b5b8135612d82848260208601612cf4565b91505092915050565b60008060408385031215612da257612da161296e565b5b6000612db085828601612b0f565b925050602083013567ffffffffffffffff811115612dd157612dd0612973565b5b612ddd85828601612d5d565b9150509250929050565b600080600060608486031215612e0057612dff61296e565b5b6000612e0e86828701612bc4565b9350506020612e1f86828701612bc4565b9250506040612e3086828701612b0f565b9150509250925092565b60008060408385031215612e5157612e5061296e565b5b6000612e5f85828601612b0f565b9250506020612e7085828601612b0f565b9150509250929050565b7f4e487b7100000000000000000000000000000000000000000000000000000000600052602160045260246000fd5b60048110612eba57612eb9612e7a565b5b50565b6000819050612ecb82612ea9565b919050565b6000612edb82612ebd565b9050919050565b612eeb81612ed0565b82525050565b6000602082019050612f066000830184612ee2565b92915050565b600060039050919050565b600081905092915050565b6000819050919050565b612f3581612aee565b82525050565b6000612f478383612f2c565b60208301905092915050565b6000602082019050919050565b612f6981612f0c565b612f738184612f17565b9250612f7e82612f22565b8060005b83811015612faf578151612f968782612f3b565b9650612fa183612f53565b925050600181019050612f82565b505050505050565b6000606082019050612fcc6000830184612f60565b92915050565b60038110612fe357612fe2612e7a565b5b50565b6000819050612ff482612fd2565b919050565b600061300482612fe6565b9050919050565b61301481612ff9565b82525050565b600060208201905061302f600083018461300b565b92915050565b60006020828403121561304b5761304a61296e565b5b600061305984828501612bc4565b91505092915050565b61306b816129fd565b811461307657600080fd5b50565b60008135905061308881613062565b92915050565b600080604083850312156130a5576130a461296e565b5b60006130b385828601612bc4565b92505060206130c485828601613079565b9150509250929050565b600080fd5b600067ffffffffffffffff8211156130ee576130ed612c48565b5b6130f782612a82565b9050602081019050919050565b82818337600083830152505050565b6000613126613121846130d3565b612ca8565b905082815260208101848484011115613142576131416130ce565b5b61314d848285613104565b509392505050565b600082601f83011261316a57613169612c43565b5b813561317a848260208601613113565b91505092915050565b6000806000806080858703121561319d5761319c61296e565b5b60006131ab87828801612bc4565b94505060206131bc87828801612bc4565b93505060406131cd87828801612b0f565b925050606085013567ffffffffffffffff8111156131ee576131ed612973565b5b6131fa87828801613155565b91505092959194509250565b6000806040838503121561321d5761321c61296e565b5b600061322b85828601612bc4565b925050602061323c85828601612bc4565b9150509250929050565b7f4e487b7100000000000000000000000000000000000000000000000000000000600052602260045260246000fd5b6000600282049050600182168061328d57607f821691505b602082108114156132a1576132a0613246565b5b50919050565b7f4552433732313a20617070726f76656420717565727920666f72206e6f6e657860008201527f697374656e7420746f6b656e0000000000000000000000000000000000000000602082015250565b6000613303602c83612a3e565b915061330e826132a7565b604082019050919050565b60006020820190508181036000830152613332816132f6565b9050919050565b7f4552433732313a20617070726f76616c20746f2063757272656e74206f776e6560008201527f7200000000000000000000000000000000000000000000000000000000000000602082015250565b6000613395602183612a3e565b91506133a082613339565b604082019050919050565b600060208201905081810360008301526133c481613388565b9050919050565b7f4552433732313a20617070726f76652063616c6c6572206973206e6f74206f7760008201527f6e6572206e6f7220617070726f76656420666f7220616c6c0000000000000000602082015250565b6000613427603883612a3e565b9150613432826133cb565b604082019050919050565b600060208201905081810360008301526134568161341a565b9050919050565b7f4e487b7100000000000000000000000000000000000000000000000000000000600052603260045260246000fd5b60006040820190506134a16000830185612b83565b6134ae6020830184612b83565b9392505050565b7f4552433732313a207472616e736665722063616c6c6572206973206e6f74206f60008201527f776e6572206e6f7220617070726f766564000000000000000000000000000000602082015250565b6000613511603183612a3e565b915061351c826134b5565b604082019050919050565b6000602082019050818103600083015261354081613504565b9050919050565b7f4f776e61626c653a2063616c6c6572206973206e6f7420746865206f776e6572600082015250565b600061357d602083612a3e565b915061358882613547565b602082019050919050565b600060208201905081810360008301526135ac81613570565b9050919050565b600081905092915050565b50565b60006135ce6000836135b3565b91506135d9826135be565b600082019050919050565b60006135ef826135c1565b9150819050919050565b7f5472616e73666572206661696c65640000000000000000000000000000000000600082015250565b600061362f600f83612a3e565b915061363a826135f9565b602082019050919050565b6000602082019050818103600083015261365e81613622565b9050919050565b7f4e487b7100000000000000000000000000000000000000000000000000000000600052601160045260246000fd5b600061369f82612aee565b91506136aa83612aee565b9250827fffffffffffffffffffffffffffffffffffffffffffffffffffffffffffffffff038211156136df576136de613665565b5b828201905092915050565b60006136f582612aee565b91507fffffffffffffffffffffffffffffffffffffffffffffffffffffffffffffffff82141561372857613727613665565b5b600182019050919050565b7f4552433732313a206f776e657220717565727920666f72206e6f6e657869737460008201527f656e7420746f6b656e0000000000000000000000000000000000000000000000602082015250565b600061378f602983612a3e565b915061379a82613733565b604082019050919050565b600060208201905081810360008301526137be81613782565b9050919050565b7f4552433732313a2062616c616e636520717565727920666f7220746865207a6560008201527f726f206164647265737300000000000000000000000000000000000000000000602082015250565b6000613821602a83612a3e565b915061382c826137c5565b604082019050919050565b6000602082019050818103600083015261385081613814565b9050919050565b6000819050919050565b61386a81613857565b82525050565b600067ffffffffffffffff82169050919050565b61388d81613870565b82525050565b600061ffff82169050919050565b6138aa81613893565b82525050565b600063ffffffff82169050919050565b6138c9816138b0565b82525050565b600060a0820190506138e46000830188613861565b6138f16020830187613884565b6138fe60408301866138a1565b61390b60608301856138c0565b61391860808301846138c0565b9695505050505050565b60008151905061393181612af8565b92915050565b60006020828403121561394d5761394c61296e565b5b600061395b84828501613922565b91505092915050565b7f45524337323155524953746f726167653a2055524920717565727920666f722060008201527f6e6f6e6578697374656e7420746f6b656e000000000000000000000000000000602082015250565b60006139c0603183612a3e565b91506139cb82613964565b604082019050919050565b600060208201905081810360008301526139ef816139b3565b9050919050565b600081905092915050565b6000613a0c82612a33565b613a1681856139f6565b9350613a26818560208601612a4f565b80840191505092915050565b6000613a3e8285613a01565b9150613a4a8284613a01565b91508190509392505050565b7f4f776e61626c653a206e6577206f776e657220697320746865207a65726f206160008201527f6464726573730000000000000000000000000000000000000000000000000000602082015250565b6000613ab2602683612a3e565b9150613abd82613a56565b604082019050919050565b60006020820190508181036000830152613ae181613aa5565b9050919050565b7f4e487b7100000000000000000000000000000000000000000000000000000000600052601260045260246000fd5b6000613b2282612aee565b9150613b2d83612aee565b925082613b3d57613b3c613ae8565b5b828206905092915050565b7f4552433732313a206f70657261746f7220717565727920666f72206e6f6e657860008201527f697374656e7420746f6b656e0000000000000000000000000000000000000000602082015250565b6000613ba4602c83612a3e565b9150613baf82613b48565b604082019050919050565b60006020820190508181036000830152613bd381613b97565b9050919050565b7f4552433732313a207472616e736665722066726f6d20696e636f72726563742060008201527f6f776e6572000000000000000000000000000000000000000000000000000000602082015250565b6000613c36602583612a3e565b9150613c4182613bda565b604082019050919050565b60006020820190508181036000830152613c6581613c29565b9050919050565b7f4552433732313a207472616e7366657220746f20746865207a65726f2061646460008201527f7265737300000000000000000000000000000000000000000000000000000000602082015250565b6000613cc8602483612a3e565b9150613cd382613c6c565b604082019050919050565b60006020820190508181036000830152613cf781613cbb565b9050919050565b6000613d0982612aee565b9150613d1483612aee565b925082821015613d2757613d26613665565b5b828203905092915050565b7f4552433732313a20617070726f766520746f2063616c6c657200000000000000600082015250565b6000613d68601983612a3e565b9150613d7382613d32565b602082019050919050565b60006020820190508181036000830152613d9781613d5b565b9050919050565b7f4552433732313a207472616e7366657220746f206e6f6e20455243373231526560008201527f63656976657220696d706c656d656e7465720000000000000000000000000000602082015250565b6000613dfa603283612a3e565b9150613e0582613d9e565b604082019050919050565b60006020820190508181036000830152613e2981613ded565b9050919050565b7f4552433732314d657461646174613a2055524920717565727920666f72206e6f60008201527f6e6578697374656e7420746f6b656e0000000000000000000000000000000000602082015250565b6000613e8c602f83612a3e565b9150613e9782613e30565b604082019050919050565b60006020820190508181036000830152613ebb81613e7f565b9050919050565b7f45524337323155524953746f726167653a2055524920736574206f66206e6f6e60008201527f6578697374656e7420746f6b656e000000000000000000000000000000000000602082015250565b6000613f1e602e83612a3e565b9150613f2982613ec2565b604082019050919050565b60006020820190508181036000830152613f4d81613f11565b9050919050565b600081519050919050565b600082825260208201905092915050565b6000613f7b82613f54565b613f858185613f5f565b9350613f95818560208601612a4f565b613f9e81612a82565b840191505092915050565b6000608082019050613fbe6000830187612b83565b613fcb6020830186612b83565b613fd86040830185612c19565b8181036060830152613fea8184613f70565b905095945050505050565b600081519050614004816129a4565b92915050565b6000602082840312156140205761401f61296e565b5b600061402e84828501613ff5565b91505092915050565b600061404282612aee565b915061404d83612aee565b92508261405d5761405c613ae8565b5b828204905092915050565b7f4552433732313a206d696e7420746f20746865207a65726f2061646472657373600082015250565b600061409e602083612a3e565b91506140a982614068565b602082019050919050565b600060208201905081810360008301526140cd81614091565b9050919050565b7f4552433732313a20746f6b656e20616c7265616479206d696e74656400000000600082015250565b600061410a601c83612a3e565b9150614115826140d4565b602082019050919050565b60006020820190508181036000830152614139816140fd565b905091905056fea264697066735822122074a25cc08ec4d84a5fb3b4047d526343a6997fb3219f6dccf7e24f2e8283097e64736f6c63430008080033",
  "linkReferences": {},
  "deployedLinkReferences": {}
}